{
  "_format": "hh-sol-artifact-1",
  "contractName": "WavePortal",
  "sourceName": "contracts/WavePortal.sol",
  "abi": [
    {
      "inputs": [],
      "stateMutability": "payable",
      "type": "constructor"
    },
    {
      "anonymous": false,
      "inputs": [
        {
          "indexed": true,
          "internalType": "address",
          "name": "from",
          "type": "address"
        },
        {
          "indexed": false,
          "internalType": "uint256",
          "name": "timestamp",
          "type": "uint256"
        },
        {
          "indexed": false,
          "internalType": "string",
          "name": "message",
          "type": "string"
        },
        {
          "indexed": false,
          "internalType": "string",
          "name": "won",
          "type": "string"
        }
      ],
      "name": "NewWave",
      "type": "event"
    },
    {
      "inputs": [],
      "name": "getAllWaves",
      "outputs": [
        {
          "components": [
            {
              "internalType": "address",
              "name": "waver",
              "type": "address"
            },
            {
              "internalType": "string",
              "name": "message",
              "type": "string"
            },
            {
              "internalType": "uint256",
              "name": "timestamp",
              "type": "uint256"
            }
          ],
          "internalType": "struct WavePortal.Wave[]",
          "name": "",
          "type": "tuple[]"
        }
      ],
      "stateMutability": "view",
      "type": "function"
    },
    {
      "inputs": [],
      "name": "getTotalWaves",
      "outputs": [
        {
          "internalType": "uint256",
          "name": "",
          "type": "uint256"
        }
      ],
      "stateMutability": "view",
      "type": "function"
    },
    {
      "inputs": [],
      "name": "getTotalWavesPerUser",
      "outputs": [
        {
          "internalType": "uint256",
          "name": "",
          "type": "uint256"
        }
      ],
      "stateMutability": "view",
      "type": "function"
    },
    {
      "inputs": [
        {
          "internalType": "address",
          "name": "",
          "type": "address"
        }
      ],
      "name": "lastWavedAt",
      "outputs": [
        {
          "internalType": "uint256",
          "name": "",
          "type": "uint256"
        }
      ],
      "stateMutability": "view",
      "type": "function"
    },
    {
      "inputs": [
        {
          "internalType": "string",
          "name": "_message",
          "type": "string"
        }
      ],
      "name": "wave",
      "outputs": [],
      "stateMutability": "nonpayable",
      "type": "function"
    }
  ],
  "bytecode": "0x60806040526200004f6040518060400160405280601781526020017f4b656b656b652c2049742773206d65207065726f72696e0000000000000000008152506200007760201b620008571760201c565b606444426200005f9190620001c4565b6200006b919062000261565b60038190555062000308565b62000117816040516024016200008e919062000184565b6040516020818303038152906040527f41304fac000000000000000000000000000000000000000000000000000000007bffffffffffffffffffffffffffffffffffffffffffffffffffffffff19166020820180517bffffffffffffffffffffffffffffffffffffffffffffffffffffffff83818316178352505050506200011a60201b60201c565b50565b60008151905060006a636f6e736f6c652e6c6f679050602083016000808483855afa5050505050565b60006200015082620001a8565b6200015c8185620001b3565b93506200016e8185602086016200022b565b6200017981620002f7565b840191505092915050565b60006020820190508181036000830152620001a0818462000143565b905092915050565b600081519050919050565b600082825260208201905092915050565b6000620001d18262000221565b9150620001de8362000221565b9250827fffffffffffffffffffffffffffffffffffffffffffffffffffffffffffffffff0382111562000216576200021562000299565b5b828201905092915050565b6000819050919050565b60005b838110156200024b5780820151818401526020810190506200022e565b838111156200025b576000848401525b50505050565b60006200026e8262000221565b91506200027b8362000221565b9250826200028e576200028d620002c8565b5b828206905092915050565b7f4e487b7100000000000000000000000000000000000000000000000000000000600052601160045260246000fd5b7f4e487b7100000000000000000000000000000000000000000000000000000000600052601260045260246000fd5b6000601f19601f8301169050919050565b61134a80620003186000396000f3fe608060405234801561001057600080fd5b50600436106100575760003560e01c8063449d46c01461005c5780635f995fb9146100785780639a2cdc0814610096578063a42a4663146100b4578063bd43a908146100e4575b600080fd5b61007660048036038101906100719190610b9a565b610102565b005b6100806105e0565b60405161008d9190610fc7565b60405180910390f35b61009e6106a3565b6040516100ab9190610fc7565b60405180910390f35b6100ce60048036038101906100c99190610b71565b6106ee565b6040516100db9190610fc7565b60405180910390f35b6100ec610706565b6040516100f99190610ec3565b60405180910390f35b4261012c600160003373ffffffffffffffffffffffffffffffffffffffff1673ffffffffffffffffffffffffffffffffffffffff1681526020019081526020016000205461015091906110f9565b10610190576040517f08c379a000000000000000000000000000000000000000000000000000000000815260040161018790610fa7565b60405180910390fd5b42600160003373ffffffffffffffffffffffffffffffffffffffff1673ffffffffffffffffffffffffffffffffffffffff168152602001908152602001600020819055506001600260008282546101e791906110f9565b9250508190555061022d6040518060400160405280600d81526020017f2573206861732077617665642100000000000000000000000000000000000000815250336108f0565b600460405180606001604052803373ffffffffffffffffffffffffffffffffffffffff16815260200183815260200142815250908060018154018082558091505060019003906000526020600020906003020160009091909190915060008201518160000160006101000a81548173ffffffffffffffffffffffffffffffffffffffff021916908373ffffffffffffffffffffffffffffffffffffffff16021790555060208201518160010190805190602001906102ec929190610a51565b5060408201518160020155505060016000803373ffffffffffffffffffffffffffffffffffffffff1673ffffffffffffffffffffffffffffffffffffffff168152602001908152602001600020600082825461034891906110f9565b925050819055506064600354424461036091906110f9565b61036a91906110f9565b61037491906111ff565b6003819055506103bb6040518060400160405280601281526020017f52616e646f6d20232067656e657261746564000000000000000000000000000081525060035461098c565b6000604051806020016040528060008152509050603260035411610551576104186040518060400160405280600781526020017f257320776f6e2100000000000000000000000000000000000000000000000000815250336108f0565b6040518060400160405280600381526020017f796573000000000000000000000000000000000000000000000000000000000081525090506000655af3107a400090504781111561049e576040517f08c379a000000000000000000000000000000000000000000000000000000000815260040161049590610f67565b60405180910390fd5b60003373ffffffffffffffffffffffffffffffffffffffff16826040516104c490610eae565b60006040518083038185875af1925050503d8060008114610501576040519150601f19603f3d011682016040523d82523d6000602084013e610506565b606091505b505090508061054a576040517f08c379a000000000000000000000000000000000000000000000000000000000815260040161054190610f87565b60405180910390fd5b505061058a565b6040518060400160405280600281526020017f6e6f00000000000000000000000000000000000000000000000000000000000081525090505b3373ffffffffffffffffffffffffffffffffffffffff167f0646f10b0148fe8db9a43af10b6956b53e1478c47afc7132c17e243449dfd3394284846040516105d493929190610fe2565b60405180910390a25050565b600061065f6040518060400160405280602081526020017f55736572206861732073656e6420757320256420746f74616c207761766573218152506000803373ffffffffffffffffffffffffffffffffffffffff1673ffffffffffffffffffffffffffffffffffffffff1681526020019081526020016000205461098c565b6000803373ffffffffffffffffffffffffffffffffffffffff1673ffffffffffffffffffffffffffffffffffffffff16815260200190815260200160002054905090565b60006106e66040518060400160405280601781526020017f5765206861766520256420746f74616c2077617665732100000000000000000081525060025461098c565b600254905090565b60016020528060005260406000206000915090505481565b60606004805480602002602001604051908101604052809291908181526020016000905b8282101561084e57838290600052602060002090600302016040518060600160405290816000820160009054906101000a900473ffffffffffffffffffffffffffffffffffffffff1673ffffffffffffffffffffffffffffffffffffffff1673ffffffffffffffffffffffffffffffffffffffff1681526020016001820180546107b3906111cd565b80601f01602080910402602001604051908101604052809291908181526020018280546107df906111cd565b801561082c5780601f106108015761010080835404028352916020019161082c565b820191906000526020600020905b81548152906001019060200180831161080f57829003601f168201915b505050505081526020016002820154815250508152602001906001019061072a565b50505050905090565b6108ed8160405160240161086b9190610ee5565b6040516020818303038152906040527f41304fac000000000000000000000000000000000000000000000000000000007bffffffffffffffffffffffffffffffffffffffffffffffffffffffff19166020820180517bffffffffffffffffffffffffffffffffffffffffffffffffffffffff8381831617835250505050610a28565b50565b6109888282604051602401610906929190610f07565b6040516020818303038152906040527f319af333000000000000000000000000000000000000000000000000000000007bffffffffffffffffffffffffffffffffffffffffffffffffffffffff19166020820180517bffffffffffffffffffffffffffffffffffffffffffffffffffffffff8381831617835250505050610a28565b5050565b610a2482826040516024016109a2929190610f37565b6040516020818303038152906040527f9710a9d0000000000000000000000000000000000000000000000000000000007bffffffffffffffffffffffffffffffffffffffffffffffffffffffff19166020820180517bffffffffffffffffffffffffffffffffffffffffffffffffffffffff8381831617835250505050610a28565b5050565b60008151905060006a636f6e736f6c652e6c6f679050602083016000808483855afa5050505050565b828054610a5d906111cd565b90600052602060002090601f016020900481019282610a7f5760008555610ac6565b82601f10610a9857805160ff1916838001178555610ac6565b82800160010185558215610ac6579182015b82811115610ac5578251825591602001919060010190610aaa565b5b509050610ad39190610ad7565b5090565b5b80821115610af0576000816000905550600101610ad8565b5090565b6000610b07610b0284611058565b611027565b905082815260208101848484011115610b1f57600080fd5b610b2a84828561118b565b509392505050565b600081359050610b41816112fd565b92915050565b600082601f830112610b5857600080fd5b8135610b68848260208601610af4565b91505092915050565b600060208284031215610b8357600080fd5b6000610b9184828501610b32565b91505092915050565b600060208284031215610bac57600080fd5b600082013567ffffffffffffffff811115610bc657600080fd5b610bd284828501610b47565b91505092915050565b6000610be78383610e40565b905092915050565b610bf88161114f565b82525050565b610c078161114f565b82525050565b6000610c1882611098565b610c2281856110bb565b935083602082028501610c3485611088565b8060005b85811015610c705784840389528151610c518582610bdb565b9450610c5c836110ae565b925060208a01995050600181019050610c38565b50829750879550505050505092915050565b6000610c8d826110a3565b610c9781856110d7565b9350610ca781856020860161119a565b610cb0816112ec565b840191505092915050565b6000610cc6826110a3565b610cd081856110e8565b9350610ce081856020860161119a565b610ce9816112ec565b840191505092915050565b6000610d016034836110e8565b91507f547279696e6720746f207769746864726177206d6f7265206d6f6e657920746860008301527f616e2074686520636f6e7472616374206861732e0000000000000000000000006020830152604082019050919050565b6000610d676027836110e8565b91507f4661696c656420746f207769746864726177206d6f6e65792066726f6d20636f60008301527f6e74726163742e000000000000000000000000000000000000000000000000006020830152604082019050919050565b6000610dcd6028836110e8565b91507f4d75737420776169742035206d696e75746573206265666f726520776176696e60008301527f6720616761696e2e0000000000000000000000000000000000000000000000006020830152604082019050919050565b6000610e336000836110cc565b9150600082019050919050565b6000606083016000830151610e586000860182610bef565b5060208301518482036020860152610e708282610c82565b9150506040830151610e856040860182610e90565b508091505092915050565b610e9981611181565b82525050565b610ea881611181565b82525050565b6000610eb982610e26565b9150819050919050565b60006020820190508181036000830152610edd8184610c0d565b905092915050565b60006020820190508181036000830152610eff8184610cbb565b905092915050565b60006040820190508181036000830152610f218185610cbb565b9050610f306020830184610bfe565b9392505050565b60006040820190508181036000830152610f518185610cbb565b9050610f606020830184610e9f565b9392505050565b60006020820190508181036000830152610f8081610cf4565b9050919050565b60006020820190508181036000830152610fa081610d5a565b9050919050565b60006020820190508181036000830152610fc081610dc0565b9050919050565b6000602082019050610fdc6000830184610e9f565b92915050565b6000606082019050610ff76000830186610e9f565b81810360208301526110098185610cbb565b9050818103604083015261101d8184610cbb565b9050949350505050565b6000604051905081810181811067ffffffffffffffff8211171561104e5761104d6112bd565b5b8060405250919050565b600067ffffffffffffffff821115611073576110726112bd565b5b601f19601f8301169050602081019050919050565b6000819050602082019050919050565b600081519050919050565b600081519050919050565b6000602082019050919050565b600082825260208201905092915050565b600081905092915050565b600082825260208201905092915050565b600082825260208201905092915050565b600061110482611181565b915061110f83611181565b9250827fffffffffffffffffffffffffffffffffffffffffffffffffffffffffffffffff0382111561114457611143611230565b5b828201905092915050565b600061115a82611161565b9050919050565b600073ffffffffffffffffffffffffffffffffffffffff82169050919050565b6000819050919050565b82818337600083830152505050565b60005b838110156111b857808201518184015260208101905061119d565b838111156111c7576000848401525b50505050565b600060028204905060018216806111e557607f821691505b602082108114156111f9576111f861128e565b5b50919050565b600061120a82611181565b915061121583611181565b9250826112255761122461125f565b5b828206905092915050565b7f4e487b7100000000000000000000000000000000000000000000000000000000600052601160045260246000fd5b7f4e487b7100000000000000000000000000000000000000000000000000000000600052601260045260246000fd5b7f4e487b7100000000000000000000000000000000000000000000000000000000600052602260045260246000fd5b7f4e487b7100000000000000000000000000000000000000000000000000000000600052604160045260246000fd5b6000601f19601f8301169050919050565b6113068161114f565b811461131157600080fd5b5056fea26469706673582212201c6ebfdb6383d43469ebe28d94aa4fb5316812dc9b93594fbfe2269e3e26c55e64736f6c63430008000033",
  "linkReferences": {},
  "deployedLinkReferences": {}
}